:100000000C945D000C9485000C9485000C94850084
:100010000C9485000C9485000C9485000C9485004C
:100020000C9485000C9485000C9485000C9485003C
:100030000C9485000C9485000C9485000C9485002C
:100040000C94FD030C9485000C94CB030C94A50335
:100050000C9485000C9485000C9485000C9485000C
:100060000C9485000C94850000000008000201003B
:100070000003040700000000000000000000000072
:10008000250028002B0000000000240027002A0083
:10009000040404040404040402020202020203032E
:1000A0000303030301020408102040800102040836
:1000B00010200102040810201E0611241FBECFEFDD
:1000C000D8E0DEBFCDBF21E0AEE2B1E001C01D92BD
:1000D000AB3DB207E1F711E0A0E0B1E0EAE4FDE0FA
:1000E00002C005900D92AE32B107D9F710E0CDE510
:1000F000D0E004C02197FE010E949D06CC35D107B7
:10010000C9F70E9447040C94A3060C94000090E0E9
:10011000FC01EC55FF4F249180579F4FFC018491C7
:10012000882399F090E0880F991FFC01EA57FF4F50
:10013000A591B491FC01E458FF4F859194918FB73C
:10014000F894EC91E22BEC938FBF0895AF92BF929D
:10015000CF92DF92EF92FF920F931F93CF93DF9393
:100160006C017B018B01040F151FEB015E01AE18C2
:10017000BF08C017D10759F06991D601ED91FC91E4
:100180000190F081E02DC6010995892B79F7C50111
:10019000DF91CF911F910F91FF90EF90DF90CF9063
:1001A000BF90AF900895FC01538D448D252F30E012
:1001B000842F90E0821B930B541710F0CF96089574
:1001C00001970895FC01918D828D981761F0A28DA1
:1001D000AE0FBF2FB11D5D968C91928D9F5F9F7367
:1001E000928F90E008958FEF9FEF0895FC01918D1D
:1001F000828D981731F0828DE80FF11D858D90E08A
:1002000008958FEF9FEF08952FB7F89480913A01EA
:1002100090913B01A0913C01B0913D012FBF809393
:10022000460190934701A0934801B09349018EE3A2
:1002300091E00E94F60097FF26C02FB7F8948091B6
:100240003A0190913B01A0913C01B0913D012FBF3B
:1002500040914601509147016091480170914901D8
:10026000841B950BA60BB70B4091420150914301A3
:10027000609144017091450184179507A607B7075F
:10028000B0F28FEF9FEF0895CF92DF92EF92FF923F
:10029000CF930E940401FC0197FD4EC08D32910561
:1002A00021F0C0970A9708F040C0C12CD12C7601EC
:1002B000C0E0E130F105D1F0ED32F105D9F1CF0127
:1002C000C0970A9798F4AAE0B0E0A70196010E94AF
:1002D00061066F01FF0FEE08FF08C60ED71EE81E6D
:1002E000F91E80E3C81AD108E108F1088EE391E015
:1002F0000E94E2000E940401FC01C0970A97C8F224
:10030000E130F105B1F2CC2341F0F094E094D094C7
:10031000C094C11CD11CE11CF11CC701B601CF91D6
:10032000FF90EF90DF90CF9008958EE391E00E94D0
:10033000E200AFCFC1E0DACFC12CD12C7601EDCFF6
:10034000FC01918D228D892F90E0805C9F4F821B54
:1003500091098F73992708958EE391E00E94A0017F
:1003600021E0892B09F420E0822F089580E090E0BD
:10037000892B29F00E94AC0181110C940000089592
:10038000FC01A48DA80FB92FB11DA35ABF4F2C910A
:10039000848D90E001968F739927848FA689B78901
:1003A0002C93A089B1898C91837080648C93938DF8
:1003B000848D981306C00288F389E02D80818F7D9B
:1003C00080830895EF92FF920F931F93CF93DF9353
:1003D000EC0181E0888F9B8D8C8D98131AC0E88981
:1003E000F989808185FF15C09FB7F894EE89FF8950
:1003F0006083E889F98980818370806480839FBFEE
:1004000081E090E0DF91CF911F910F91FF90EF90ED
:100410000895F62E0B8D10E00F5F1F4F0F731127FD
:10042000E02E8C8D8E110CC00FB607FCFACFE88938
:10043000F989808185FFF5CFCE010E94C001F1CFFF
:10044000EB8DEC0FFD2FF11DE35AFF4FF0829FB7AC
:10045000F8940B8FEA89FB8980818062CFCFCF939C
:10046000DF93EC01888D8823B9F0AA89BB89E889DC
:10047000F9898C9185FD03C0808186FD0DC00FB682
:1004800007FCF7CF8C9185FFF2CF808185FFEDCF00
:10049000CE010E94C001E9CFDF91CF91089590E095
:1004A000FC01E859FF4F2491FC01EC55FF4F3491BA
:1004B000FC01E057FF4FE491EE23C9F0222339F00D
:1004C000233001F1A8F4213019F1223029F1F0E0B4
:1004D000EE0FFF1FE458FF4FA591B4918FB7F8942A
:1004E000EC91611126C030953E233C938FBF089557
:1004F0002730A9F02830C9F0243049F780918000D6
:100500008F7D03C0809180008F7780938000DFCF44
:1005100084B58F7784BDDBCF84B58F7DFBCF809191
:10052000B0008F778093B000D2CF8091B0008F7DE4
:10053000F9CF3E2BDACF1F93CF93DF93182FEB0128
:100540000E948700209739F460E0812FDF91CF91DE
:100550001F910C944F02CF3FD10511F461E0F5CF0C
:10056000E12FF0E0E859FF4FE491E33031F140F43E
:10057000E130B1F0E230E1F0C038D1057CF7E4CFF2
:10058000E73029F1E83059F1E430B1F7809180008B
:10059000806280938000D0938B00C0938A0004C057
:1005A00084B5806884BDC7BDDF91CF911F91089548
:1005B00084B5806284BDC8BDF7CF8091800080681B
:1005C00080938000D0938900C0938800EDCF809104
:1005D000B00080688093B000C093B300E5CF8091F5
:1005E000B00080628093B000C093B400DDCF3FB70D
:1005F000F89480912F0190913001A0913101B09138
:10060000320126B5A89B05C02F3F19F00196A11D08
:10061000B11D3FBFBA2FA92F982F8827BC01CD014C
:10062000620F711D811D911D42E0660F771F881FAB
:10063000991F4A95D1F708958F929F92AF92BF92DA
:10064000CF92DF92EF92FF920E94F7024B015C0182
:1006500080EDC82E87E0D82EE12CF12C0E94F70205
:10066000681979098A099B09683E734081059105DB
:10067000A8F321E0C21AD108E108F10888EE880E3B
:1006800083E0981EA11CB11CC114D104E104F10443
:1006900029F7FF90EF90DF90CF90BF90AF909F90A1
:1006A0008F900895FC0101900020E9F73197AF0188
:1006B000481B590BBC018EE391E00C94A6008F926D
:1006C0009F92AF92BF920F931F93CF93DF93CDB7BB
:1006D000DEB7A1970FB6F894DEBF0FBECDBF19A24B
:1006E000423008F44AE08E010F5D1F4F842E912C9A
:1006F000B12CA12CA50194010E947B06E62FB90123
:10070000CA01EA30F4F4E05DD801EE938D01232BA9
:10071000242B252B79F790E080E0109719F0CD017C
:100720000E945203A1960FB6F894DEBF0FBECDBF54
:10073000DF91CF911F910F91BF90AF909F908F90BD
:100740000895E95CE1CF0C944B061F920F920FB60F
:100750000F9211242F933F934F935F936F937F9347
:100760008F939F93AF93BF93EF93FF938EE391E0AB
:100770000E94C001FF91EF91BF91AF919F918F9126
:100780007F916F915F914F913F912F910F900FBE8D
:100790000F901F9018951F920F920FB60F92112471
:1007A0002F938F939F93EF93FF93E0914E01F091DE
:1007B0004F018081E0915401F091550182FD1BC0F1
:1007C0009081809157018F5F8F732091580182171C
:1007D00041F0E0915701F0E0E25CFE4F958F80938D
:1007E0005701FF91EF919F918F912F910F900FBE25
:1007F0000F901F9018958081F4CF1F920F920FB623
:100800000F9211242F933F938F939F93AF93BF9396
:1008100080913A0190913B01A0913C01B0913D0142
:1008200030912E0123E0230F2D3758F50196A11D9D
:10083000B11D20932E0180933A0190933B01A09328
:100840003C01B0933D0180912F0190913001A09126
:100850003101B09132010196A11DB11D80932F018C
:1008600090933001A0933101B0933201BF91AF91C9
:100870009F918F913F912F910F900FBE0F901F90DE
:10088000189526E8230F0296A11DB11DD2CF7894AA
:1008900084B5826084BD84B5816084BD85B5826085
:1008A00085BD85B5816085BD80916E008160809336
:1008B0006E0010928100809181008260809381009F
:1008C00080918100816080938100809180008160AF
:1008D000809380008091B10084608093B10080910A
:1008E000B00081608093B00080917A008460809332
:1008F0007A0080917A00826080937A0080917A00F9
:10090000816080937A0080917A00806880937A0079
:100910001092C10081E0809380008093B100E0914B
:100920004E01F0914F0182E08083E0914A01F09105
:100930004B011082E0914C01F0914D018FEC8083CE
:1009400010925601E0915201F091530186E08083AC
:10095000E0915001F0915101808180618083E091AC
:100960005001F0915101808188608083E0915001B5
:10097000F0915101808180688083E0915001F09175
:10098000510180818F7D808382E191E00E9452033A
:1009900089E291E00E94520384E090E0A0E0B0E0A0
:1009A0008093420190934301A0934401B093450189
:1009B00081E090E00E94A303182F8093350182E02C
:1009C00090E00E94A303D82F8093340183E090E04D
:1009D0000E94A303C82F8093330189E00E948700FF
:1009E0008AE00E9487008BE00E94870061E089E036
:1009F0000E944F020E941C03612F70E089E00E9458
:100A00009B0261E08AE00E944F020E941C036D2F4E
:100A100070E08AE00E949B0261E08BE00E944F023E
:100A20000E941C036C2F70E08BE00E949B02D0E2BE
:100A300086E0F82E00E010E0CFEF2FB7F894809119
:100A40003A0190913B01A0913C01B0913D012FBF33
:100A50004091360150913701609138017091390110
:100A60005C016D01A41AB50AC60AD70AB601A50130
:100A7000493E53406105710508F46FC0809336010B
:100A800090933701A0933801B09339018EE391E040
:100A90000E94A001892BE9F18EE391E00E94E2001F
:100AA000843609F066C00E944401E62E6093350149
:100AB0000E944401609334010E9444016093330119
:100AC0006E2D81E090E00E9453066091340182E037
:100AD00090E00E9453066091330183E090E00E9411
:100AE00053060E941C038EE391E00E942F02609146
:100AF000350170E089E00E949B026091340170E052
:100B00008AE00E949B026091330170E08BE00E94BA
:100B10009B026091350170E090E080E04AE00E9425
:100B20005F038CE291E00E9452036091340170E017
:100B300090E080E04AE00E945F038CE291E00E9436
:100B400052036091330170E090E080E04AE00E943F
:100B50005F0389E291E00E9452030115110509F437
:100B60006CCF0E94AC01882309F467CF0E9400007B
:100B700064CF8E3699F481E090E00E94A3038093C5
:100B8000350182E090E00E94A3038093340183E06A
:100B900090E00E94A30380933301A5CF8D3639F4F2
:100BA000C0933501C0933401C09333019CCF833788
:100BB00039F410923501109234011092330193CF21
:100BC000823709F090CF8EE391E00E942F02E091EE
:100BD0005001F091510180818F7E8083E09150011E
:100BE000F09151018081877F8083E0915001F091E5
:100BF000510180818F778083E0915001F091510104
:100C000080818F7D80838091580180935701F89473
:100C10001092C600D093C0001092C100F092C200A2
:100C20001092C4001092C50011240FEF00935E00D3
:100C300000935D00FF27EE27099455CFEEE3F1E026
:100C40001382128288EE93E0A0E0B0E08483958363
:100C5000A683B78384E091E09183808385EC90E064
:100C60009587848784EC90E09787868780EC90E076
:100C7000918B808B81EC90E0938B828B82EC90E067
:100C8000958B848B86EC90E0978B868B118E128EE1
:100C9000138E148E0895F999FECF92BD81BDF89AF6
:100CA000992780B50895262FF999FECF1FBA92BDD6
:100CB00081BD20BD0FB6F894FA9AF99A0FBE01963D
:100CC00008950E946C06A59F900DB49F900DA49F5F
:100CD000800D911D11240895A29FB001B39FC00102
:100CE000A39F700D811D1124911DB29F700D811D58
:100CF0001124911D0895A1E21A2EAA1BBB1BFD0110
:100D00000DC0AA1FBB1FEE1FFF1FA217B307E407EA
:100D1000F50720F0A21BB30BE40BF50B661F771F42
:100D2000881F991F1A9469F7609570958095909522
:100D30009B01AC01BD01CF010895EE0FFF1F05908F
:0A0D4000F491E02D0994F894FFCF20
:100D4A0000000000E201A600D3002F02A001E20089
:100D5A00F600546563686E306D616E3161632046DA
:0E0D6A005343207374617274000D0A002C0054
:00000001FF
