:100000000C945D000C9485000C9485000C94850084
:100010000C9485000C9485000C9485000C9485004C
:100020000C9485000C9485000C9485000C9485003C
:100030000C9485000C9485000C9485000C9485002C
:100040000C94A5030C9485000C9415040C94EF03F8
:100050000C9485000C9485000C9485000C9485000C
:100060000C9485000C94850000000008000201003B
:100070000003040700000000000000000000000072
:10008000250028002B0000000000240027002A0083
:10009000040404040404040402020202020203032E
:1000A0000303030301020408102040800102040836
:1000B00010200102040810201A0611241FBECFEFE1
:1000C000D8E0DEBFCDBF21E0A8E1B1E001C01D92C4
:1000D000A53CB207E1F711E0A0E0B1E0E2E4FDE009
:1000E00002C005900D92A831B107D9F710E0CDE517
:1000F000D0E004C02197FE010E949906CC35D107BB
:10010000C9F70E9447040C949F060C94000090E0ED
:10011000FC01EC55FF4F249180579F4FFC018491C7
:10012000882399F090E0880F991FFC01EA57FF4F50
:10013000A591B491FC01E458FF4F859194918FB73C
:10014000F894EC91E22BEC938FBF089590E0FC01C2
:10015000E859FF4F2491FC01EC55FF4F3491FC010D
:10016000E057FF4FE491EE23C9F0222339F023300A
:1001700001F1A8F4213019F1223029F1F0E0EE0F5D
:10018000FF1FE458FF4FA591B4918FB7F894EC91FD
:10019000611126C030953E233C938FBF08952730D0
:1001A000A9F02830C9F0243049F7809180008F7D74
:1001B00003C0809180008F7780938000DFCF84B56B
:1001C0008F7784BDDBCF84B58F7DFBCF8091B0006E
:1001D0008F778093B000D2CF8091B0008F7DF9CF20
:1001E0003E2BDACF1F93CF93DF93182FEB010E94A2
:1001F0008700209739F460E0812FDF91CF911F9124
:100200000C94A600CF3FD10511F461E0F5CFE12FAA
:10021000F0E0E859FF4FE491E33031F140F4E13090
:10022000B1F0E230E1F0C038D1057CF7E4CFE7303F
:1002300029F1E83059F1E430B1F780918000806213
:1002400080938000D0938B00C0938A0004C084B553
:10025000806884BDC7BDDF91CF911F91089584B59B
:10026000806284BDC8BDF7CF809180008068809394
:100270008000D0938900C0938800EDCF8091B000BA
:1002800080688093B000C093B300E5CF8091B00048
:1002900080628093B000C093B400DDCF3FB7F89484
:1002A0008091200190912101A0912201B091230120
:1002B00026B5A89B05C02F3F19F00196A11DB11DC1
:1002C0003FBFBA2FA92F982F8827BC01CD01620FFD
:1002D000711D811D911D42E0660F771F881F991FB8
:1002E0004A95D1F708958F929F92AF92BF92CF9285
:1002F000DF92EF92FF920E944E014B015C0180ED74
:10030000C82E87E0D82EE12CF12C0E944E016819EE
:1003100079098A099B09683E734081059105A8F314
:1003200021E0C21AD108E108F10888EE880E83E0C6
:10033000981EA11CB11CC114D104E104F10429F7D9
:10034000FF90EF90DF90CF90BF90AF909F908F90F5
:100350000895AF92BF92CF92DF92EF92FF920F93E8
:100360001F93CF93DF936C017B018B01040F151F4B
:10037000EB015E01AE18BF08C017D10759F06991B3
:10038000D601ED91FC910190F081E02DC601099517
:10039000892B79F7C501DF91CF911F910F91FF90C4
:1003A000EF90DF90CF90BF90AF900895FC01538DF8
:1003B000448D252F30E0842F90E0821B930B54173F
:1003C00010F0CF96089501970895FC01918D828DCC
:1003D000981761F0A28DAE0FBF2FB11D5D968C9165
:1003E000928D9F5F9F73928F90E008958FEF9FEFA4
:1003F0000895FC01918D828D981731F0828DE80F60
:10040000F11D858D90E008958FEF9FEF08952FB730
:10041000F8948091240190912501A0912601B0913A
:1004200027012FBF8093300190933101A0933201B7
:10043000B093330188E291E00E94F90197FF26C052
:100440002FB7F8948091240190912501A091260165
:10045000B09127012FBF409130015091310160913F
:10046000320170913301841B950BA60BB70B4091A1
:100470002C0150912D0160912E0170912F01841754
:100480009507A607B707B0F28FEF9FEF0895CF92B9
:10049000DF92EF92FF92CF930E940702FC0197FD3B
:1004A0004EC08D32910521F0C0970A9708F040C0E8
:1004B000C12CD12C7601C0E0E130F105D1F0ED3254
:1004C000F105D9F1CF01C0970A9798F4AAE0B0E0FE
:1004D000A70196010E945D066F01FF0FEE08FF085D
:1004E000C60ED71EE81EF91E80E3C81AD108E1081F
:1004F000F10888E291E00E94E5010E940702FC01F8
:10050000C0970A97C8F2E130F105B1F2CC2341F06F
:10051000F094E094D094C094C11CD11CE11CF11C57
:10052000C701B601CF91FF90EF90DF90CF90089573
:1005300088E291E00E94E501AFCFC1E0DACFC12CA3
:10054000D12C7601EDCFFC01918D228D892F90E089
:10055000805C9F4F821B91098F739927089588E2D1
:1005600091E00E94A30221E0892B09F420E0822F70
:10057000089580E090E0892B29F00E94AF0281115C
:100580000C9400000895FC01A48DA80FB92FB11D93
:10059000A35ABF4F2C91848D90E001968F739927B9
:1005A000848FA689B7892C93A089B1898C91837097
:1005B00080648C93938D848D981306C00288F38990
:1005C000E02D80818F7D80830895EF92FF920F93BD
:1005D0001F93CF93DF93EC0181E0888F9B8D8C8DEF
:1005E00098131AC0E889F989808185FF15C09FB7E3
:1005F000F894EE89FF896083E889F98980818370A6
:10060000806480839FBF81E090E0DF91CF911F9154
:100610000F91FF90EF900895F62E0B8D10E00F5F75
:100620001F4F0F731127E02E8C8D8E110CC00FB64B
:1006300007FCFACFE889F989808185FFF5CFCE01E3
:100640000E94C302F1CFEB8DEC0FFD2FF11DE35A99
:10065000FF4FF0829FB7F8940B8FEA89FB89808166
:100660008062CFCFCF93DF93EC01888D8823B9F0E0
:10067000AA89BB89E889F9898C9185FD03C08081AD
:1006800086FD0DC00FB607FCF7CF8C9185FFF2CF2A
:10069000808185FFEDCFCE010E94C302E9CFDF91BB
:1006A000CF910895FC0101900020E9F73197AF0147
:1006B000481B590BBC0188E291E00C94A9018F9270
:1006C0009F92AF92BF920F931F93CF93DF93CDB7BB
:1006D000DEB7A1970FB6F894DEBF0FBECDBF19A24B
:1006E000423008F44AE08E010F5D1F4F842E912C9A
:1006F000B12CA12CA50194010E947706E62FB90127
:10070000CA01EA30F4F4E05DD801EE938D01232BA9
:10071000242B252B79F790E080E0109719F0CD017C
:100720000E945203A1960FB6F894DEBF0FBECDBF54
:10073000DF91CF911F910F91BF90AF909F908F90BD
:100740000895E95CE1CF0C9447061F920F920FB613
:100750000F9211242F933F938F939F93AF93BF9347
:100760008091240190912501A0912601B09127014B
:1007700030911F0123E0230F2D3758F50196A11D5D
:10078000B11D20931F018093240190932501A09314
:100790002601B09327018091200190912101A09121
:1007A0002201B09123010196A11DB11D809320016A
:1007B00090932101A0932201B0932301BF91AF91A7
:1007C0009F918F913F912F910F900FBE0F901F908F
:1007D000189526E8230F0296A11DB11DD2CF1F92B6
:1007E0000F920FB60F9211242F933F934F935F9365
:1007F0006F937F938F939F93AF93BF93EF93FF93E9
:1008000088E291E00E94C302FF91EF91BF91AF9106
:100810009F918F917F916F915F914F913F912F9118
:100820000F900FBE0F901F9018951F920F920FB64A
:100830000F9211242F938F939F93EF93FF93E09147
:100840003801F09139018081E0913E01F0913F0142
:1008500082FD1BC09081809141018F5F8F73209139
:100860004201821741F0E0914101F0E0E85DFE4F66
:10087000958F80934101FF91EF919F918F912F91DF
:100880000F900FBE0F901F9018958081F4CF789431
:1008900084B5826084BD84B5816084BD85B5826085
:1008A00085BD85B5816085BD80916E008160809336
:1008B0006E0010928100809181008260809381009F
:1008C00080918100816080938100809180008160AF
:1008D000809380008091B10084608093B10080910A
:1008E000B00081608093B00080917A008460809332
:1008F0007A0080917A00826080937A0080917A00F9
:10090000816080937A0080917A00806880937A0079
:100910001092C10081E080938000809381008093D9
:10092000B1008093B000E0913801F091390182E08C
:100930008083E0913401F09135011082E09136011D
:10094000F09137018FEC808310924001E0913C01DF
:10095000F0913D0186E08083E0913A01F0913B0106
:10096000808180618083E0913A01F0913B01808138
:1009700088608083E0913A01F0913B01808180683A
:100980008083E0913A01F0913B0180818F7D8083EB
:1009900084E090E0A0E0B0E080932C0190932D01E2
:1009A000A0932E01B0932F0181E090E00E94A30359
:1009B000182F80931A0182E090E00E94A303D82FA1
:1009C0008093190183E090E00E94A303C82F8093D5
:1009D000180189E00E9487008AE00E9487008BE06E
:1009E0000E94870061E089E00E94A6000E947301D6
:1009F000612F70E089E00E94F20061E08AE00E94CD
:100A0000A6000E9473016D2F70E08AE00E94F20040
:100A100061E08BE00E94A6000E9473016C2F70E0E1
:100A20008BE00E94F200D0E286E0F82E00E010E0B9
:100A3000CFEF2FB7F8948091240190912501A091D8
:100A40002601B09127012FBF40911B0150911C013D
:100A500060911D0170911E015C016D01A41AB50A1F
:100A6000C60AD70AB601A501493E53406105710582
:100A700008F46FC080931B0190931C01A0931D018B
:100A8000B0931E0188E291E00E94A302892BE9F154
:100A900088E291E00E94E501843609F066C00E9478
:100AA0004702E62E60931A010E94470260931901E3
:100AB0000E944702609318016E2D81E090E00E9431
:100AC0004F066091190182E090E00E944F0660910C
:100AD000180183E090E00E944F060E94730188E2B3
:100AE00091E00E94320360911A0170E089E00E9457
:100AF000F2006091190170E08AE00E94F2006091BA
:100B0000180170E08BE00E94F20060911A0170E021
:100B100090E080E04AE00E945F0382E191E00E9461
:100B200052036091190170E090E080E04AE00E9479
:100B30005F0382E191E00E9452036091180170E02E
:100B400090E080E04AE00E945F0384E191E00E942F
:100B500052030115110509F46CCF0E94AF028823DE
:100B600009F467CF0E94000064CF8E3699F481E0CB
:100B700090E00E94A30380931A0182E090E00E941B
:100B8000A3038093190183E090E00E94A303809364
:100B90001801A5CF8D3639F4C0931A01C0931901FD
:100BA000C09318019CCF833739F410921A01109228
:100BB00019011092180193CF823709F090CF88E283
:100BC00091E00E943203E0913A01F0913B01808173
:100BD0008F7E8083E0913A01F0913B018081877F95
:100BE0008083E0913A01F0913B0180818F7780838F
:100BF000E0913A01F0913B0180818F7D808380916B
:100C0000420180934101F8941092C600D093C00035
:100C10001092C100F092C2001092C4001092C50060
:100C200011240FEF00935E0000935D00FF27EE2775
:100C3000099455CFE8E2F1E01382128288EE93E046
:100C4000A0E0B0E084839583A683B78384E091E03D
:100C50009183808385EC90E09587848784EC90E095
:100C60009787868780EC90E0918B808B81EC90E079
:100C7000938B828B82EC90E0958B848B86EC90E05A
:100C8000978B868B118E128E138E148E0895F99980
:100C9000FECF92BD81BDF89A992780B50895262F81
:100CA000F999FECF1FBA92BD81BD20BD0FB6F89451
:100CB000FA9AF99A0FBE019608950E946806A59FB8
:100CC000900DB49F900DA49F800D911D1124089547
:100CD000A29FB001B39FC001A39F700D811D11247D
:100CE000911DB29F700D811D1124911D0895A1E2E7
:100CF0001A2EAA1BBB1BFD010DC0AA1FBB1FEE1F96
:100D0000FF1FA217B307E407F50720F0A21BB30BE0
:100D1000E40BF50B661F771F881F991F1A9469F75C
:100D200060957095809590959B01AC01BD01CF01B8
:100D30000895EE0FFF1F0590F491E02D0994F894AB
:020D4000FFCFE3
:100D420000000000E502A901D6013203A302E50179
:080D5200F9012C000D0A00005C
:00000001FF
